:100000000C9472000C9493000C9493000C94930045
:100010000C9493000C94BF120C94EB120C9493006C
:100020000C9493000C9493000C9493000C94930004
:100030000C9493000C9493000C9493000C949300F4
:100040000C9493000C9493000C9493000C949300E4
:100050000C9493000C9493000C9493000C949300D4
:100060000C9493000C9417130C9493000C9493002D
:100070000C9493000C9493000C9493000C949300B4
:100080000C9493000C9493000C9493000C949300A4
:100090000C9493000C9493000C9493000C94930094
:1000A0000C9493000C9493000C9493000C94930084
:1000B0000C9493000C9493000C9493000C94930074
:1000C0000C9493000C9493000C9493000C94930064
:1000D0000C9493000C9493000C9493000C94930054
:1000E0000C94930011241FBECFEFD1E2DEBFCDBF31
:1000F00000E00CBF13E0A0E0B2E0E8E6FEE300E0C1
:100100000BBF02C007900D92A031B107D9F713E0E1
:10011000A0E1B3E001C01D92AC34B107E1F70E9449
:1001200043150C94321F0C9400000F931F93DF9320
:10013000CF93CDB7DEB7C057D0400FB6F894DEBF2F
:100140000FBECDBFFE01E359FF4F80E090E0A0E875
:10015000BFE380839183A283B3838E0107591F4F2E
:10016000FE01E359FF4F608171818281938126E610
:1001700036E646E655E40E949119DC01CB01F80110
:1001800080839183A283B383FE01E759FF4F60818F
:1001900071818281938120E030E040E85FE30E943A
:1001A000971B882344F4FE01E959FF4F81E090E05A
:1001B0009183808364C0FE01E759FF4F60817181A4
:1001C0008281938120E03FEF4FE757E40E94371B85
:1001D00018160CF043C0FE01E359FF4F6081718196
:1001E0008281938120E030E040E251E40E94911945
:1001F000DC01CB018E0109591F4FBC01CD010E94CA
:10020000BB17DC01CB01F801918380831FC0FE0185
:10021000EB59FF4F80E791E091838083FE01EB591A
:10022000FF4F808191810197F1F7FE01EB59FF4F5C
:1002300091838083DE01A959BF4FFE01E959FF4F29
:1002400080819181019711969C938E93FE01E959CB
:10025000FF4F808191810097D1F627C08E01095907
:100260001F4FFE01E759FF4F6081718182819381A9
:100270000E94BB17DC01CB01F80191838083DE0172
:10028000AD59BF4FFE01E959FF4F808191818D9398
:100290009C93FE01ED59FF4F808191810197F1F709
:1002A000FE01ED59FF4F91838083A8E2B0E0E8E2C0
:1002B000F0E080818E7F8C93A8E2B0E0E8E2F0E08D
:1002C00080818D7F8C93E8E2F0E080E38083A8E278
:1002D000B0E0E8E2F0E0808184608C93FE01E15AB6
:1002E000FF4F80E090E0A0EAB0E480839183A28396
:1002F000B3838E01055A1F4FFE01E15AFF4F608103
:1003000071818281938126E636E646E655E40E94B5
:100310009119DC01CB01F80180839183A283B3831F
:10032000FE01E55AFF4F608171818281938120E057
:1003300030E040E85FE30E94971B882344F4FE010D
:10034000E75AFF4F81E090E09183808364C0FE0113
:10035000E55AFF4F608171818281938120E03FEFF8
:100360004FE757E40E94371B18160CF043C0FE01FC
:10037000E15AFF4F608171818281938120E030E0FA
:1003800040E251E40E949119DC01CB018E01075A31
:100390001F4FBC01CD010E94BB17DC01CB01F8014E
:1003A000918380831FC0FE01E95AFF4F80E791E0EF
:1003B00091838083FE01E95AFF4F808191810197EB
:1003C000F1F7FE01E95AFF4F91838083DE01A75ABE
:1003D000BF4FFE01E75AFF4F80819181019711962F
:1003E0009C938E93FE01E75AFF4F80819181009785
:1003F000D1F627C08E01075A1F4FFE01E55AFF4F65
:1004000060817181828193810E94BB17DC01CB01E5
:10041000F80191838083DE01AB5ABF4FFE01E75A9A
:10042000FF4F808191818D939C93FE01EB5AFF4F8A
:10043000808191810197F1F7FE01EB5AFF4F918383
:100440008083A8E2B0E0E8E2F0E080818B7F8C93CB
:10045000FE01EF5AFF4F80E090E0A0E8BFE3808309
:100460009183A283B3838E01035B1F4FFE01EF5A7A
:10047000FF4F608171818281938126E636E646E6F0
:1004800055E40E949119DC01CB01F801808391832E
:10049000A283B383FE01E35BFF4F608171818281A0
:1004A000938120E030E040E85FE30E94971B8823BF
:1004B00044F4FE01E55BFF4F81E090E0918380838F
:1004C00064C0FE01E35BFF4F608171818281938193
:1004D00020E03FEF4FE757E40E94371B18160CF05F
:1004E00043C0FE01EF5AFF4F608171818281938189
:1004F00020E030E040E251E40E949119DC01CB01A0
:100500008E01055B1F4FBC01CD010E94BB17DC01B2
:10051000CB01F801918380831FC0FE01E75BFF4F91
:1005200080E791E091838083FE01E75BFF4F80814C
:1005300091810197F1F7FE01E75BFF4F9183808383
:10054000DE01A55BBF4FFE01E55BFF4F808191811E
:10055000019711969C938E93FE01E55BFF4F80817E
:1005600091810097D1F627C08E01055B1F4FFE01D8
:10057000E35BFF4F60817181828193810E94BB1791
:10058000DC01CB01F80191838083DE01A95BBF4FC1
:10059000FE01E55BFF4F808191818D939C93FE016D
:1005A000E95BFF4F808191810197F1F7FE01E95BE3
:1005B000FF4F91838083A8E2B0E0E8E2F0E0808121
:1005C0008E7F8C93A8E2B0E0E8E2F0E080818D7F3E
:1005D0008C93E8E2F0E080E38083A8E2B0E0E8E218
:1005E000F0E0808184608C93FE01ED5BFF4F80E042
:1005F00090E0A0EAB0E480839183A283B3838E016C
:10060000015C1F4FFE01ED5BFF4F608171818281B4
:10061000938126E636E646E655E40E949119DC0110
:10062000CB01F80180839183A283B383FE01FF96FF
:10063000608171818281938120E030E040E85FE356
:100640000E94971B88232CF481E090E09EAF8DAF31
:1006500046C0FE01FF96608171818281938120E016
:100660003FEF4FE757E40E94371B181664F5FE0171
:10067000ED5BFF4F608171818281938120E030E0EA
:1006800040E251E40E949119DC01CB01BC01CD0193
:100690000E94BB17DC01CB019EAF8DAF0FC080E77E
:1006A00091E09CAF8BAF8BAD9CAD0197F1F79CAF08
:1006B0008BAF8DAD9EAD01979EAF8DAF8DAD9EADD5
:1006C000009769F716C0FE01FF96608171818281F3
:1006D00093810E94BB17DC01CB019EAF8DAF8DAD26
:1006E0009EAD9AAF89AF89AD9AAD0197F1F79AAFF8
:1006F00089AFA8E2B0E0E8E2F0E080818B7F8C93E4
:1007000080E090E0A0E8BFE38DAB9EABAFABB8AFAD
:100710006DA97EA98FA998AD26E636E646E655E492
:100720000E949119DC01CB0189AB9AABABABBCAB9E
:1007300069A97AA98BA99CA920E030E040E85FE391
:100740000E94971B88232CF481E090E098AB8FA740
:100750003FC069A97AA98BA99CA920E03FEF4FE788
:1007600057E40E94371B18164CF56DA97EA98FA976
:1007700098AD20E030E040E251E40E949119DC01A4
:10078000CB01BC01CD010E94BB17DC01CB0198ABB2
:100790008FA70FC080E791E09EA78DA78DA59EA58E
:1007A0000197F1F79EA78DA78FA598A9019798AB00
:1007B0008FA78FA598A9009769F714C069A97AA98E
:1007C0008BA99CA90E94BB17DC01CB0198AB8FA71A
:1007D0008FA598A99CA78BA78BA59CA50197F1F73E
:1007E0009CA78BA7A8E2B0E0E8E2F0E080818E7FD2
:1007F0008C93A8E2B0E0E8E2F0E080818D7F8C93FA
:10080000E8E2F0E080E38083A8E2B0E0E8E2F0E034
:10081000808184608C9380E090E0A0EAB0E48FA3B4
:1008200098A7A9A7BAA76FA178A589A59AA526E632
:1008300036E646E655E40E949119DC01CB018BA314
:100840009CA3ADA3BEA36BA17CA18DA19EA120E022
:1008500030E040E85FE30E94971B88232CF481E09E
:1008600090E09AA389A33FC06BA17CA18DA19EA11A
:1008700020E03FEF4FE757E40E94371B18164CF576
:100880006FA178A589A59AA520E030E040E251E467
:100890000E949119DC01CB01BC01CD010E94BB1764
:1008A000DC01CB019AA389A30FC080E791E098A354
:1008B0008F8F8F8D98A10197F1F798A38F8F89A1C2
:1008C0009AA101979AA389A389A19AA1009769F790
:1008D00014C06BA17CA18DA19EA10E94BB17DC015D
:1008E000CB019AA389A389A19AA19E8F8D8F8D8D0B
:1008F0009E8D0197F1F79E8F8D8FA8E2B0E0E8E220
:10090000F0E080818B7F8C9380E090E0A0E8BFE3F3
:10091000898F9A8FAB8FBC8F698D7A8D8B8D9C8DD3
:1009200026E636E646E655E40E949119DC01CB0145
:100930008D8B9E8BAF8BB88F6D897E898F89988DBB
:1009400020E030E040E85FE30E94971B88232CF40E
:1009500081E090E09C8B8B8B3FC06D897E898F8975
:10096000988D20E03FEF4FE757E40E94371B1816A1
:100970004CF5698D7A8D8B8D9C8D20E030E040E2C6
:1009800051E40E949119DC01CB01BC01CD010E9410
:10099000BB17DC01CB019C8B8B8B0FC080E791E0F8
:1009A0009A8B898B89899A890197F1F79A8B898B20
:1009B0008B899C8901979C8B8B8B8B899C89009759
:1009C00069F714C06D897E898F89988D0E94BB1745
:1009D000DC01CB019C8B8B8B8B899C89988B8F87BF
:1009E0008F8598890197F1F7988B8F87A8E2B0E0FF
:1009F000E8E2F0E080818E7F8C93A8E2B0E0E8E24C
:100A0000F0E080818D7F8C93E8E2F0E080E28083EB
:100A1000A8E2B0E0E8E2F0E0808184608C9380E0BE
:100A200090E0A0EAB0E48B879C87AD87BE876B859A
:100A30007C858D859E8526E636E646E655E40E9451
:100A40009119DC01CB018F839887A987BA876F81C1
:100A5000788589859A8520E030E040E85FE30E9450
:100A6000971B88232CF481E090E09E838D833FC008
:100A70006F81788589859A8520E03FEF4FE757E4BD
:100A80000E94371B18164CF56B857C858D859E85DD
:100A900020E030E040E251E40E949119DC01CB01FA
:100AA000BC01CD010E94BB17DC01CB019E838D836D
:100AB0000FC080E791E09C838B838B819C810197A1
:100AC000F1F79C838B838D819E8101979E838D831B
:100AD0008D819E81009769F714C06F817885898523
:100AE0009A850E94BB17DC01CB019E838D838D818B
:100AF0009E819A83898389819A810197F1F79A83EC
:100B00008983A8E2B0E0E8E2F0E080818B7F8C93FB
:100B1000C059DF4F0FB6F894DEBF0FBECDBFCF91E7
:100B2000DF911F910F910895DF93CF93CDB7DEB77B
:100B30002E970FB6F894DEBF0FBECDBF80E090E0D9
:100B4000A0E8BFE38B879C87AD87BE876B857C85DC
:100B50008D859E8526E636E646E655E40E94911987
:100B6000DC01CB018F839887A987BA876F8178854D
:100B700089859A8520E030E040E85FE30E94971B7A
:100B800088232CF481E090E09E838D833FC06F81A9
:100B9000788589859A8520E03FEF4FE757E40E94EA
:100BA000371B18164CF56B857C858D859E8520E05E
:100BB00030E040E251E40E949119DC01CB01BC011C
:100BC000CD010E94BB17DC01CB019E838D830FC03A
:100BD00080E791E09C838B838B819C810197F1F767
:100BE0009C838B838D819E8101979E838D838D81D4
:100BF0009E81009769F714C06F81788589859A85F1
:100C00000E94BB17DC01CB019E838D838D819E8169
:100C10009A83898389819A810197F1F79A838983DD
:100C200088E20E94280681E00E94280686E00E9451
:100C300028068EE00E94280680E80E9428062E964C
:100C40000FB6F894DEBF0FBECDBFCF91DF910895F0
:100C5000DF93CF93CDB7DEB76E970FB6F894DEBFB4
:100C60000FBECDBF8E8F8E8D8D8F8D8D807F8D8FA2
:100C7000A8E2B0E0E8E2F0E080818F708C93A8E217
:100C8000B0E0E8E2F0E090818D8D892B8C93A8E2B2
:100C9000B0E0E8E2F0E080818E7F8C93A8E2B0E0E3
:100CA000E8E2F0E080818D7F8C93A8E2B0E0E8E29A
:100CB000F0E0808184608C9380E090E0A0EAB0E472
:100CC000898F9A8FAB8FBC8F698D7A8D8B8D9C8D20
:100CD00026E636E646E655E40E949119DC01CB0192
:100CE0008D8B9E8BAF8BB88F6D897E898F89988D08
:100CF00020E030E040E85FE30E94971B88232CF45B
:100D000081E090E09C8B8B8B3FC06D897E898F89C1
:100D1000988D20E03FEF4FE757E40E94371B1816ED
:100D20004CF5698D7A8D8B8D9C8D20E030E040E212
:100D300051E40E949119DC01CB01BC01CD010E945C
:100D4000BB17DC01CB019C8B8B8B0FC080E791E044
:100D50009A8B898B89899A890197F1F79A8B898B6C
:100D60008B899C8901979C8B8B8B8B899C890097A5
:100D700069F714C06D897E898F89988D0E94BB1791
:100D8000DC01CB019C8B8B8B8B899C89988B8F870B
:100D90008F8598890197F1F7988B8F87A8E2B0E04B
:100DA000E8E2F0E080818B7F8C938E8D8F708E8F48
:100DB0008E8D8295807F8E8FA8E2B0E0E8E2F0E031
:100DC00080818F708C93A8E2B0E0E8E2F0E090813F
:100DD0008E8D892B8C93A8E2B0E0E8E2F0E0808170
:100DE0008E7F8C93A8E2B0E0E8E2F0E080818D7F16
:100DF0008C93A8E2B0E0E8E2F0E0808184608C931C
:100E000080E090E0A0EAB0E48B879C87AD87BE8746
:100E10006B857C858D859E8526E636E646E655E41F
:100E20000E949119DC01CB018F839887A987BA872B
:100E30006F81788589859A8520E030E040E85FE31E
:100E40000E94971B88232CF481E090E09E838D8381
:100E50003FC06F81788589859A8520E03FEF4FE715
:100E600057E40E94371B18164CF56B857C858D85E1
:100E70009E8520E030E040E251E40E949119DC01BF
:100E8000CB01BC01CD010E94BB17DC01CB019E83CD
:100E90008D830FC080E791E09C838B838B819C8145
:100EA0000197F1F79C838B838D819E8101979E83AF
:100EB0008D838D819E81009769F714C06F8178853D
:100EC00089859A850E94BB17DC01CB019E838D83A7
:100ED0008D819E819A83898389819A810197F1F717
:100EE0009A838983A8E2B0E0E8E2F0E080818B7F1A
:100EF0008C936E960FB6F894DEBF0FBECDBFCF9128
:100F0000DF910895DF93CF93CDB7DEB76E970FB61D
:100F1000F894DEBF0FBECDBF8E8F8E8D8D8F8D8DE1
:100F2000807F8D8FA8E2B0E0E8E2F0E080818F70F2
:100F30008C93A8E2B0E0E8E2F0E090818D8D892BFF
:100F40008C93A8E2B0E0E8E2F0E0808181608C93CD
:100F5000A8E2B0E0E8E2F0E080818D7F8C93A8E227
:100F6000B0E0E8E2F0E0808184608C9380E090E083
:100F7000A0EAB0E4898F9A8FAB8FBC8F698D7A8D90
:100F80008B8D9C8D26E636E646E655E40E94911947
:100F9000DC01CB018D8B9E8BAF8BB88F6D897E89E9
:100FA0008F89988D20E030E040E85FE30E94971B36
:100FB00088232CF481E090E09C8B8B8B3FC06D8963
:100FC0007E898F89988D20E03FEF4FE757E40E949C
:100FD000371B18164CF5698D7A8D8B8D9C8D20E012
:100FE00030E040E251E40E949119DC01CB01BC01E8
:100FF000CD010E94BB17DC01CB019C8B8B8B0FC0FA
:1010000080E791E09A8B898B89899A890197F1F71A
:101010009A8B898B8B899C8901979C8B8B8B8B8975
:101020009C89009769F714C06D897E898F89988D96
:101030000E94BB17DC01CB019C8B8B8B8B899C891D
:10104000988B8F878F8598890197F1F7988B8F8779
:10105000A8E2B0E0E8E2F0E080818B7F8C938E8D97
:101060008F708E8F8E8D8295807F8E8FA8E2B0E0FC
:10107000E8E2F0E080818F708C93A8E2B0E0E8E2D3
:10108000F0E090818E8D892B8C93A8E2B0E0E8E2AD
:10109000F0E0808181608C93A8E2B0E0E8E2F0E0CB
:1010A00080818D7F8C93A8E2B0E0E8E2F0E080815F
:1010B00084608C9380E090E0A0EAB0E48B879C870A
:1010C000AD87BE876B857C858D859E8526E636E659
:1010D00046E655E40E949119DC01CB018F83988785
:1010E000A987BA876F81788589859A8520E030E065
:1010F00040E85FE30E94971B88232CF481E090E096
:101100009E838D833FC06F81788589859A8520E095
:101110003FEF4FE757E40E94371B18164CF56B85DD
:101120007C858D859E8520E030E040E251E40E9480
:101130009119DC01CB01BC01CD010E94BB17DC0180
:10114000CB019E838D830FC080E791E09C838B83CE
:101150008B819C810197F1F79C838B838D819E818C
:1011600001979E838D838D819E81009769F714C0BE
:101170006F81788589859A850E94BB17DC01CB0138
:101180009E838D838D819E819A83898389819A81B3
:101190000197F1F79A838983A8E2B0E0E8E2F0E0F2
:1011A00080818B7F8C936E960FB6F894DEBF0FBE56
:1011B000CDBFCF91DF910895DF93CF93CDB7DEB749
:1011C00080E80E942806CF91DF910895DF93CF93A6
:1011D0000F920F92CDB7DEB79A8389830AC0E98157
:1011E000FA8180810E94820789819A8101969A837F
:1011F0008983E981FA818081882389F70F900F9094
:10120000CF91DF910895DF93CF9300D00F92CDB7A8
:10121000DEB789836A838981282F30E03C832B8362
:101220008B819C8182309105D9F02B813C812330C8
:10123000310534F48B819C818130910561F01EC0B1
:101240002B813C812330310581F08B819C8184305E
:10125000910581F013C08A8181580E9428060EC032
:101260008A8181540E94280609C08A818D560E9475
:10127000280604C08A818D520E9428060F900F9084
:101280000F900F90CF91DF910895DF93CF93CDB75B
:10129000DEB727970FB6F894DEBF0FBECDBF8A83A7
:1012A0006B835D834C833F832E8319828A818823DD
:1012B00019F08B81882319F40E94DC0804C08A810C
:1012C0006B810E9403098E819F818530910519F001
:1012D00089818130A9F48C819D8120E137E2B901B7
:1012E0000E94E71ECB01C09690933B0380933A0384
:1012F00080913A0390913B030E94820781E08983A9
:101300008E819F818430910519F08981813011F59A
:101310008C819D8128EE33E0B9010E94E71ECB014C
:1013200090933D0380933C0380913C0390913D0357
:101330002AE030E0B9010E94E71EC09690934B036B
:1013400080934A0380914A0390914B030E94820745
:1013500081E089838E819F818330910519F0898195
:10136000813011F58C819D8124E630E0B9010E9425
:10137000E71ECB0190933D0380933C0380913C0397
:1013800090913D032AE030E0B9010E94E71EC0962B
:1013900090934703809346038091460390914703BF
:1013A0000E94820781E089838E819F81823091052E
:1013B00019F08981813011F58C819D812AE030E01E
:1013C000B9010E94E71ECB0190933D0380933C033B
:1013D00080913C0390913D032AE030E0B9010E94E6
:1013E000E71EC09690934103809340038091400391
:1013F000909141030E94820781E089838E819F81C1
:101400008130910519F08981813091F48C819D8121
:101410002AE030E0B9010E94E71EC096909349038C
:101420008093480380914803909149030E9482076A
:101430008E819F81863091051CF085E40E94820791
:1014400027960FB6F894DEBF0FBECDBFCF91DF91C8
:101450000895DF93CF93CDB7DEB7E1E8F0E01082D7
:10146000E5E8F0E08CEF8083E4E8F0E081E0808361
:10147000E9E8F0E083E08083E8E8F0E08FEF808344
:10148000EBE8F0E083E08083EAE8F0E08FEF808330
:10149000EDE8F0E083E08083ECE8F0E08FEF80831C
:1014A000E7E8F0E083E08083E6E8F0E08FEF808318
:1014B000E0E8F0E08BEA8083E2E8F0E01082E1E827
:1014C000F0E08CE08083CF91DF910895DF93CF939C
:1014D000CDB7DEB7E1E2F1E01082E5E2F1E08FEFB7
:1014E0008083E4E2F1E081E08083E9E2F1E01082D0
:1014F000E8E2F1E08FEF8083EBE2F1E01082EAE2D4
:10150000F1E08FEF8083EDE2F1E01082ECE2F1E0B8
:101510008FEF8083E0E2F1E089EA8083E1E2F1E0AD
:101520008BE08083CF91DF910895DF93CF930F926B
:101530000F92CDB7DEB789836A83E8E2F1E0898153
:101540008083EAE2F1E08A8180830F900F90CF914F
:10155000DF910895DF93CF93CDB7DEB7A4E2B0E07B
:10156000E4E2F0E0808180628C93A5E2B0E0E5E205
:10157000F0E0808180628C93CF91DF910895DF93BA
:10158000CF93CDB7DEB7A4E2B0E0E4E2F0E0808133
:1015900080648C93A5E2B0E0E5E2F0E080818064B5
:1015A0008C93CF91DF910895DF93CF93CDB7DEB7C2
:1015B000A4E2B0E0E4E2F0E0808180688C93A5E2F0
:1015C000B0E0E5E2F0E0808180688C93CF91DF911C
:1015D0000895DF93CF93CDB7DEB70E94AA0A0E9489
:1015E000BF0A0E94D40ACF91DF9108950F931F93F1
:1015F000DF93CF9300D00F920F92CDB7DEB78D83DC
:1016000080E090E0A0E0B0E089839A83AB83BC8364
:101610008D81882F90E0A0E0B0E0BC01CD010E9458
:10162000791CDC01CB01BC01CD0120E030E040E1C0
:1016300050E40E948B1ADC01CB01BC01CD0120E0FB
:1016400030E048EA51E40E946419DC01CB0189834F
:101650009A83AB83BC83E9E8F0E0108208E810E0ED
:1016600069817A818B819C810E94BB17DC01CB014F
:10167000F80180830F900F900F900F900F90CF91F3
:10168000DF911F910F9108950F931F93DF93CF93D5
:1016900000D00F920F92CDB7DEB78D8380E090E03F
:1016A000A0E0B0E089839A83AB83BC838D81882FCF
:1016B00090E0A0E0B0E0BC01CD010E94791CDC010B
:1016C000CB01BC01CD0120E030E040E150E40E94BC
:1016D0008B1ADC01CB01BC01CD0120E030E048EAEF
:1016E00051E40E946419DC01CB0189839A83AB83A6
:1016F000BC83EBE8F0E010820AE810E069817A81AF
:101700008B819C810E94BB17DC01CB01F801808397
:101710000F900F900F900F900F90CF91DF911F912E
:101720000F9108950F931F93DF93CF9300D00F92E3
:101730000F92CDB7DEB78D8380E090E0A0E0B0E0FF
:1017400089839A83AB83BC838D81882F90E0A0E04E
:10175000B0E0BC01CD010E94791CDC01CB01BC01D1
:10176000CD0120E030E040E150E40E948B1ADC0122
:10177000CB01BC01CD0120E030E048EA51E40E94F9
:101780006419DC01CB0189839A83AB83BC83EDE8C8
:10179000F0E010820CE810E069817A818B819C81F5
:1017A0000E94BB17DC01CB01F80180830F900F90E2
:1017B0000F900F900F90CF91DF911F910F9108958F
:1017C000DF93CF93CDB7DEB7E9E8F0E083E0808325
:1017D000E8E8F0E08FEF8083CF91DF910895DF9309
:1017E000CF93CDB7DEB7EBE8F0E083E08083EAE8A3
:1017F000F0E08FEF8083CF91DF910895DF93CF9357
:10180000CDB7DEB7EDE8F0E083E08083ECE8F0E010
:101810008FEF8083CF91DF910895DF93CF93CDB782
:10182000DEB7A7E2B0E0E7E2F0E08081876F8C935B
:10183000A8E2B0E0E8E2F0E0808180788C93CF917C
:10184000DF910895DF93CF93CDB7DEB7A7E2B0E085
:10185000E7E2F0E0808188608C93A8E2B0E0E8E203
:10186000F0E08081877F8C93CF91DF910895DF93A3
:10187000CF93CDB7DEB7ADE2B0E0EDE2F0E080812E
:101880008F7E8C93AEE2B0E0EEE2F0E0808180618A
:101890008C93CF91DF910895DF93CF93CDB7DEB7CF
:1018A000ADE2B0E0EDE2F0E080818F7D8C93AEE2BE
:1018B000B0E0EEE2F0E0808180628C93CF91DF9126
:1018C0000895DF93CF930F92CDB7DEB7A1E2B0E0DA
:1018D000E1E2F0E080818F608C93A2E2B0E0E2E28E
:1018E000F0E08081807F8C93EDE2F0E08FE08083F8
:1018F000EEE2F0E08081EEE2F0E01082AAE0B1E0FA
:10190000EAE0F1E0808188618C93ABE0B1E0EBE04C
:10191000F1E0808188618C930F90CF91DF910895E1
:10192000DF93CF93CDB7DEB70E94610C0E94220CEB
:101930000E94370C0E944C0C0E940D0CCF91DF913D
:101940000895DF93CF930F92CDB7DEB71982E6E209
:10195000F0E080818983898188608983E8E2F0E012
:10196000898180830F90CF91DF910895DF93CF938A
:101970000F92CDB7DEB71982E6E2F0E0808189836D
:101980008981877F8983E8E2F0E0898180830F90F5
:10199000CF91DF910895DF93CF93CDB7DEB7E1EC20
:1019A000F0E01082E0ECF0E01082E2ECF0E086E0A3
:1019B0008083E4ECF0E08FE58083E5ECF0E01082DA
:1019C000E1ECF0E088E98083CF91DF910895DF9327
:1019D000CF93CDB7DEB7F894AAE6B0E0EAE6F0E040
:1019E000808182608C93ADE3B0E0EDE3F0E0808134
:1019F00080618C937894CF91DF910895DF93CF939A
:101A0000CDB7DEB7F894AAE6B0E0EAE6F0E0808170
:101A100088608C93ADE3B0E0EDE3F0E0808180621C
:101A20008C937894CF91DF910895EF92FF920F936A
:101A30001F93DF93CF93CDB7DEB72C970FB6F894F3
:101A4000DEBF0FBECDBF9C878B878B859C85CC016D
:101A5000A0E0B0E0BC01CD010E94791CDC01CB010B
:101A6000BC01CD0127EA37EE4EE85CE30E949119F4
:101A7000DC01CB017C018D0180910002909101027B
:101A8000AA2797FDA095BA2FBC01CD010E94C71BC4
:101A90009B01AC01C801B7010E949119DC01CB0187
:101AA0008F839887A987BA87809102029091030259
:101AB000A0910402B0910502BC01CD0123EC35EFE9
:101AC00048EC50E40E949119DC01CB018B839C838C
:101AD000AD83BE836F81788589859A8520E030E06B
:101AE00040EF51E40E949119DC01CB01BC01CD0112
:101AF0002B813C814D815E810E948B1ADC01CB01E0
:101B0000BC01CD010E94251CDC01CB019A83898395
:101B100089819A812C960FB6F894DEBF0FBECDBF97
:101B2000CF91DF911F910F91FF90EF900895DF9378
:101B3000CF9300D000D0CDB7DEB79E838D831982BE
:101B40001A821B821C828D819E81CC01A0E0B0E0B4
:101B500089839A83AB83BC8310921403109215037C
:101B6000109216031092170380911403909115039D
:101B7000A0911603B0911703809310039093110363
:101B8000A0931203B0931303E2E2F0E085E08083B8
:101B90008091100390911103A0911203B09113034F
:101BA0009C0181E061E0A90124E030E00E94450948
:101BB00020911003309111034091120350911303AF
:101BC00089819A81AB81BC8182179307A407B507ED
:101BD000F8F6E2E2F0E0108210921B0310921A0372
:101BE00026960FB6F894DEBF0FBECDBFCF91DF9122
:101BF0000895DF93CF9300D000D0CDB7DEB79E839A
:101C00008D8319821A821B821C828D819E81CC0158
:101C1000A0E0B0E089839A83AB83BC831092140365
:101C2000109215031092160310921703809114035B
:101C300090911503A0911603B091170380931003A0
:101C400090931103A0931203B0931303E2E2F0E028
:101C500084E08083209118033091190381E061E0D2
:101C6000A90124E030E00E9445092091140330913D
:101C70001503409116035091170389819A81AB8116
:101C8000BC8182179307A407B50720F7E2E2F0E0D2
:101C9000108210921F0310921E0326960FB6F8941E
:101CA000DEBF0FBECDBFCF91DF910895DF93CF93FD
:101CB00000D000D0CDB7DEB79E838D8319821A8203
:101CC0001B821C828D819E81CC01A0E0B0E08983C3
:101CD0009A83AB83BC831092140310921503109265
:101CE0001603109217038091140390911503A0918D
:101CF0001603B09117038093100390931103A093E0
:101D00001203B0931303E2E2F0E08AE080832091B3
:101D100018033091190381E061E0A90124E030E06B
:101D20000E94450920911003309111034091120344
:101D30005091130389819A81AB81BC8182179307EB
:101D4000A407B50720F7E2E2F0E0108210921D032D
:101D500010921C0326960FB6F894DEBF0FBECDBFBF
:101D6000CF91DF910895DF93CF9300D000D0CDB70E
:101D7000DEB79E838D8319821A821B821C828D811D
:101D80009E81CC01A0E0B0E089839A83AB83BC83C1
:101D90001092140310921503109216031092170359
:101DA0008091140390911503A0911603B09117032D
:101DB0008093100390931103A0931203B093130325
:101DC000E2E2F0E082E080838091100390911103C1
:101DD000A0911203B09113039C0181E061E0A9017D
:101DE00024E030E00E944509209110033091110356
:101DF000409112035091130389819A81AB81BC8178
:101E000082179307A407B507F8F6E2E2F0E0108224
:101E100026960FB6F894DEBF0FBECDBFCF91DF91EF
:101E20000895DF93CF93CDB7DEB766970FB6F894DA
:101E3000DEBF0FBECDBF80913403909135030A976A
:101E40009093350380933403809132039091330350
:101E50000A979093330380933203809134039091D7
:101E60003503009771F4809132039091330300970A
:101E700041F41092290310922803E2E2F0E010826C
:101E800075C380913403909135038234910574F0C9
:101E9000809134039091350321E430E0A901481B7F
:101EA000590BCA0190933503809334038091320318
:101EB000909133038234910574F0809132039091B4
:101EC000330321E430E0A901481B590BCA01909368
:101ED0003303809332032091340330913503C901D9
:101EE000880F991F820F931F9093350380933403BB
:101EF0002091320330913303C901880F991F820F5B
:101F0000931F909333038093320380913403909115
:101F1000350399230CF4C1C08091320390913303AF
:101F200099230CF4BAC0E2E2F0E086E0808380916D
:101F300032039091330320913403309135033A8773
:101F400029879C878B874B855C8589859A85841733
:101F5000950724F429853A853C872B874B855C853A
:101F60005A834983109210031092110310921203A6
:101F70001092130389819A819C01442737FD409573
:101F8000542F8091100390911103A0911203B091EE
:101F90001303281739074A075B0760F720913203BC
:101FA000309133038091340390913503281739071A
:101FB00074F5E2E2F0E084E0808320913403309114
:101FC00035038091320390913303A901481B590BCB
:101FD000CA019A83898310921403109215031092F8
:101FE00016031092170389819A819C01442737FDBB
:101FF0004095542F8091140390911503A0911603DE
:10200000B0911703281739074A075B0760F720913B
:10201000320330913303809134039091350382175A
:1020200093070CF09CC2E2E2F0E082E08083209112
:102030003203309133038091340390913503A90129
:10204000481B590BCA019A8389831092100310927E
:10205000110310921203109213038981282F30E08C
:1020600081E06CE0A90123E030E00E94450989810C
:102070009A819C01442737FD4095542F809110038D
:1020800090911103A0911203B091130328173907FF
:102090004A075B0708F463C2EACF8091340390914A
:1020A0003503181619060CF4B5C0809132039091CF
:1020B0003303181619060CF4ADC0E2E2F0E089E033
:1020C00080838091320390913303209134033091C7
:1020D000350338872F839E878D874D855E858F8159
:1020E00098854817590724F42F8138853E872D8716
:1020F0004D855E855A83498389819A819095819522
:102100009F4F9A83898310921003109211031092AB
:1021100012031092130389819A819C01442737FD91
:102120004095542F8091100390911103A0911203B8
:10213000B0911303281739074A075B0760F720910E
:102140003203309133038091340390913503821729
:10215000930784F5E2E2F0E088E080832091320387
:10216000309133038091340390913503A901481BCA
:10217000590BCA019A838983109214031092150394
:10218000109216031092170389819A819C014427AB
:1021900037FD4095542F8091140390911503A09121
:1021A0001603B0911703281739074A075B0708F48D
:1021B000D6C1EACFE2E2F0E081E0808320913403EF
:1021C000309135038091320390913303A901481B6C
:1021D000590BCA019A83898310921003109211033C
:1021E000109212031092130389819A819C01442753
:1021F00037FD4095542F8091100390911103A091C9
:102200001203B0911303281739074A075B0708F434
:10221000A6C1EACF809134039091350399230CF441
:10222000CDC08091320390913303181619060CF437
:10223000C5C0E2E2F0E085E08083809132039091B6
:102240003303909581959F4F90933303809332038E
:102250008091340390913503209132033091330300
:102260003E832D83988B8F874F8558898D819E81E2
:102270008417950724F42D813E81388B2F874F8555
:1022800058895A83498389819A819A8B898B898954
:102290009A89992334F429893A892F5F3F4F3A8BE1
:1022A000298B89899A89959587959A838983109234
:1022B00010031092110310921203109213038981DC
:1022C0009A819C01442737FD4095542F809110033B
:1022D00090911103A0911203B091130328173907AD
:1022E0004A075B0760F720913203309133038091F6
:1022F0003403909135032817390784F5E2E2F0E0C2
:1023000084E080832091340330913503809132033F
:1023100090913303A901481B590BCA019A83898301
:1023200010921403109215031092160310921703C3
:1023300089819A819C01442737FD4095542F8091D3
:10234000140390911503A0911603B0911703281759
:1023500039074A075B0708F402C1EACFE2E2F0E07E
:1023600081E08083209132033091330380913403E4
:1023700090913503A901481B590BCA019A8389839F
:102380001092100310921103109212031092130373
:1023900089819A819C01442737FD4095542F809173
:1023A000100390911103A0911203B0911303281709
:1023B00039074A075B0708F4D2C0EACF809134039B
:1023C00090913503181619060CF4C9C08091320398
:1023D0009091330399230CF4C2C0E2E2F0E08AE06A
:1023E00080838091340390913503909581959F4F20
:1023F000909335038093340380913203909133039B
:1024000020913403309135033C832B839C8B8B8B41
:102410004B895C898B819C818417950724F42B81DF
:102420003C813C8B2B8B4B895C895A834983898106
:102430009A819E8B8D8B8D899E89992334F42D8969
:102440003E892F5F3F4F3E8B2D8B8D899E899595C1
:1024500087959A838983109210031092110310922A
:1024600012031092130389819A819C01442737FD3E
:102470004095542F8091100390911103A091120365
:10248000B0911303281739074A075B0760F72091BB
:102490003403309135038091320390913303281730
:1024A00039077CF5E2E2F0E082E08083209132039C
:1024B000309133038091340390913503A901481B77
:1024C000590BCA019A838983109210031092110349
:1024D000109212031092130389819A819C01442760
:1024E00037FD4095542F8091100390911103A091D6
:1024F0001203B0911303281739074A075B0778F1D5
:10250000EBCFE2E2F0E088E0808320913403309169
:1025100035038091320390913303A901481B590B75
:10252000CA019A83898310921403109215031092A2
:1025300016031092170389819A819C01442737FD65
:102540004095542F8091140390911503A091160388
:10255000B0911703281739074A075B0760F71092F5
:10256000290310922803E2E2F0E0108266960FB68B
:10257000F894DEBF0FBECDBFCF91DF910895789460
:102580001F920F920FB60F9211248F939F93AF93C8
:10259000BF93DF93CF93CDB7DEB7809110039091B7
:1025A0001103A0911203B09113030196A11DB11D57
:1025B0008093100390931103A0931203B09313031D
:1025C000CF91DF91BF91AF919F918F910F900FBEEF
:1025D0000F901F90189578941F920F920FB60F923C
:1025E00011248F939F93AF93BF93DF93CF93CDB776
:1025F000DEB78091140390911503A0911603B0915A
:1026000017030196A11DB11D809314039093150328
:10261000A0931603B0931703CF91DF91BF91AF91B1
:102620009F918F910F900FBE0F901F9018951F9242
:102630000F920FB60F9200905B000F9211242F9310
:102640003F934F935F936F937F938F939F93AF933A
:10265000BF93EF93FF93DF93CF93CDB7DEB7E6EC55
:10266000F0E08081882F90E09093430380934203B1
:10267000E6ECF0E08DE380838091360390913703A0
:10268000282F30E081E061E0A90124E030E00E94E1
:102690004509E6ECF0E08081282F30E082E061E03F
:1026A000A90124E030E00E94450980914203909105
:1026B00043038130910539F481E090E09093370332
:1026C00080933603B3C180914203909143038230DB
:1026D000910579F482E090E090933703809336037C
:1026E00010922103109220031092290310922803C4
:1026F0009DC180914203909143038330910579F409
:1027000083E090E090933703809336031092230385
:1027100010922203109239031092380387C18091DE
:102720004203909143038830910561F48091360310
:10273000909137038130910529F4E2E2F0E086E0E0
:10274000808374C180914203909143038930910545
:1027500061F480913603909137038130910529F41B
:10276000E2E2F0E089E0808361C1809142039091D0
:1027700043038530910559F48091360390913703D6
:102780008130910521F4E2E2F0E010824FC18091A6
:102790004203909143038C30910504F180914203F0
:1027A0009091430387339105CCF480913603909147
:1027B00037038130910591F481E090E090931D03FF
:1027C00080931C0380914203909143030A970E94D7
:1027D000150D909319038093180328C1809142032B
:1027E0009091430387339105CCF08091360390910B
:1027F00037038130910591F481E090E090931B03C1
:1028000080931A038091420390914303C7970E94DB
:10281000150D909319038093180308C18091360316
:10282000909137038330910509F0ADC08091220368
:102830009091230381309105E9F5809142039091B5
:102840004303282F30E082E067E0A90124E030E074
:102850000E94450920912A0330912B038091420365
:1028600090914303A901481B590BCA018930910576
:1028700074F480912A0390912B03209142033091AC
:102880004303821B930B5FEF883F950774F480919D
:1028900042039091430390932B0380932A038091EA
:1028A0004203909143030E94920B109223031092D3
:1028B0002203BCC08091420390914303880F991F6B
:1028C0008639910534F08BE490E090934303809334
:1028D00042038091420390914303880F991F8F31E7
:1028E000910534F48FE090E090934303809342038A
:1028F0008091420390914303880F991F2227332729
:10290000281B390B8091060290910702820F931FBA
:102910008B309105A4F48091420390914303880F7A
:10292000991F22273327281B390B8091060290918B
:102930000702820F931F2FEF863F9207ECF48091DE
:10294000420390914303282F30E081E067E0A90122
:1029500024E030E00E9445098091420390914303B6
:10296000880F991F909307028093060281E090E000
:10297000909339038093380381E090E09093230390
:102980008093220353C080913603909137038230A5
:10299000910509F043C0809120039091210381307B
:1029A000910501F58091420390914303282F30E077
:1029B00082E067E0A90124E030E00E9445098091AF
:1029C0004203909143039093330380933203109218
:1029D00021031092200381E090E0909329038093DB
:1029E000280324C08091420390914303282F30E0B4
:1029F00081E067E0A90124E030E00E944509809170
:102A0000420390914303909335038093340381E014
:102A100090E0909321038093200308C01092390323
:102A2000109238031092230310922203CF91DF916A
:102A3000FF91EF91BF91AF919F918F917F916F9196
:102A40005F914F913F912F910F9000925B000F90FB
:102A50000FBE0F901F901895DF93CF93CDB7DEB7C1
:102A6000F8940E94900C0E94CB0C0E94E70C0E94EC
:102A7000FE0C0E94E90A0E94290A0E94660A7894C4
:102A8000CF91DF910895DF93CF93CDB7DEB7EA976B
:102A90000FB6F894DEBF0FBECDBF0E942C150E946A
:102AA00095000E94940586E966E90E94950A809146
:102AB0001A0390911B038130910551F48091180302
:102AC000909119030E94970D109219031092180308
:102AD00080911C0390911D038130910551F48091E8
:102AE0001803909119030E94560E10921903109228
:102AF000180380911E0390911F038130910551F4BA
:102B000080911803909119030E94F90D10921903F6
:102B10001092180380912803909129038130910528
:102B200011F40E94110F8091380390913903813084
:102B3000910509F0BCCF20912C0330912D03809199
:102B4000060290910702821793070CF004C180914E
:102B50002C0390912D0301979AAF89AFF1C089ADF5
:102B60000E94F60A80E090E0A0E0B0E48DAB9EAB5E
:102B7000AFABB8AF6DA97EA98FA998AD26E636E6B2
:102B800046E655E40E949119DC01CB0189AB9AAB72
:102B9000ABABBCAB69A97AA98BA99CA920E030E0BA
:102BA00040E85FE30E94971B88232CF481E090E0CB
:102BB00098AB8FA73FC069A97AA98BA99CA920E0EF
:102BC0003FEF4FE757E40E94371B18164CF56DA9ED
:102BD0007EA98FA998AD20E030E040E251E40E9448
:102BE0009119DC01CB01BC01CD010E94BB17DC01B6
:102BF000CB0198AB8FA70FC080E791E09EA78DA770
:102C00008DA59EA50197F1F79EA78DA78FA598A9E1
:102C1000019798AB8FA78FA598A9009769F714C063
:102C200069A97AA98BA99CA90E94BB17DC01CB01D9
:102C300098AB8FA78FA598A99CA78BA78BA59CA5C0
:102C40000197F1F79CA78BA799AD88E1891B0E949A
:102C5000440B80E090E0A0E2B1E48FA398A7A9A77D
:102C6000BAA76FA178A589A59AA526E636E646E615
:102C700055E40E949119DC01CB018BA39CA3ADA369
:102C8000BEA36BA17CA18DA19EA120E030E040E815
:102C90005FE30E94971B88232CF481E090E09AA3C5
:102CA00089A33FC06BA17CA18DA19EA120E03FEF35
:102CB0004FE757E40E94371B18164CF56FA178A513
:102CC00089A59AA520E030E040E251E40E949119E4
:102CD000DC01CB01BC01CD010E94BB17DC01CB01A3
:102CE0009AA389A30FC080E791E098A38F8F8F8D5F
:102CF00098A10197F1F798A38F8F89A19AA10197C5
:102D00009AA389A389A19AA1009769F714C06BA11E
:102D10007CA18DA19EA10E94BB17DC01CB019AA3CF
:102D200089A389A19AA19E8F8D8F8D8D9E8D0197EC
:102D3000F1F79E8F8D8F89AD9AAD04979AAF89AFC9
:102D4000209106023091070289AD9AAD8217930750
:102D50000CF005CF03C180912C0390912D030196B7
:102D60009AAF89AFF1C089AD0E94F60A80E090E089
:102D7000A0E0B0E4898F9A8FAB8FBC8F698D7A8D7C
:102D80008B8D9C8D26E636E646E655E40E94911929
:102D9000DC01CB018D8B9E8BAF8BB88F6D897E89CB
:102DA0008F89988D20E030E040E85FE30E94971B18
:102DB00088232CF481E090E09C8B8B8B3FC06D8945
:102DC0007E898F89988D20E03FEF4FE757E40E947E
:102DD000371B18164CF5698D7A8D8B8D9C8D20E0F4
:102DE00030E040E251E40E949119DC01CB01BC01CA
:102DF000CD010E94BB17DC01CB019C8B8B8B0FC0DC
:102E000080E791E09A8B898B89899A890197F1F7FC
:102E10009A8B898B8B899C8901979C8B8B8B8B8957
:102E20009C89009769F714C06D897E898F89988D78
:102E30000E94BB17DC01CB019C8B8B8B8B899C89FF
:102E4000988B8F878F8598890197F1F7988B8F875B
:102E500099AD88E1891B0E94440B80E090E0A0E2DC
:102E6000B1E48B879C87AD87BE876B857C858D851C
:102E70009E8526E636E646E655E40E949119DC0179
:102E8000CB018F839887A987BA876F8178858985D9
:102E90009A8520E030E040E85FE30E94971B88239A
:102EA0002CF481E090E09E838D833FC06F81788514
:102EB00089859A8520E03FEF4FE757E40E94371B52
:102EC00018164CF56B857C858D859E8520E030E05D
:102ED00040E251E40E949119DC01CB01BC01CD011B
:102EE0000E94BB17DC01CB019E838D830FC080E75E
:102EF00091E09C838B838B819C810197F1F79C836C
:102F00008B838D819E8101979E838D838D819E8190
:102F1000009769F714C06F81788589859A850E942A
:102F2000BB17DC01CB019E838D838D819E819A83AB
:102F3000898389819A810197F1F79A83898389AD81
:102F40009AAD04969AAF89AF20910602309107029C
:102F500089AD9AAD281739070CF005CF809106028C
:102F60009091070290932D0380932C0310923903C4
:102F7000109238039CCDEF92FF920F931F937B0129
:102F80008C0120E030E040E05FE40E94671B882372
:102F90008CF0C801B70120E030E040E05FE40E941F
:102FA00033190E94251C9B01AC0120503040404049
:102FB000504806C0C801B7010E94251C9B01AC0106
:102FC000B901CA011F910F91FF90EF900895A0E001
:102FD000B0E0EDEEF7E10C94FB1EDC012B01FA01F1
:102FE0009C91923008F439C1EB018881823008F459
:102FF00033C1943069F4843009F02FC111969C914B
:1030000011978981981709F428C1A8E0B2E025C179
:10301000843009F421C18230A9F4923009F01DC135
:103020009A01AD0188E0EA010990AE01E901099237
:103030009E018150C1F7E201898111969C918923FB
:10304000818308C1923009F407C112962D903C90FB
:103050001397EB018A819B811496AD90BD90CD9022
:10306000DC901797EC80FD800E811F819101281B59
:10307000390BB90137FF04C066277727621B730B32
:10308000603271050CF061C0121613066CF5370141
:103090004801062E04C096948794779467940A9406
:1030A000D2F721E030E040E050E004C0220F331FAF
:1030B000441F551F6A95D2F7215030404040504080
:1030C0002E213F2140235123211531054105510572
:1030D00021F021E030E040E050E079018A01E6286B
:1030E000F728082919293CC0232BD1F1260E371EB9
:1030F00035014601062E04C0969487947794679410
:103100000A94D2F721E030E040E050E004C0220F02
:10311000331F441F551F6A95D2F72150304040405D
:1031200050402A213B214C215D21211531054105CB
:10313000510521F021E030E040E050E059016A0102
:10314000A628B728C828D9280BC0821593052CF0CB
:103150001C01AA24BB24650103C0EE24FF248701BF
:1031600011969C91D20111968C91981709F445C043
:10317000992339F0A80197012A193B094C095D09E7
:1031800006C0A60195012E193F09400B510B57FDB2
:1031900008C0118233822282248335834683578379
:1031A0001DC081E081833382228288279927DC0138
:1031B000821B930BA40BB50B84839583A683B783E3
:1031C0000DC0220F331F441F551F248335834683B0
:1031D00057838281938101979383828324813581F0
:1031E00046815781DA01C9010197A109B1098F5FB1
:1031F0009F4FAF4FBF4328F30BC09183338222828E
:10320000EA0CFB1C0C1D1D1DE482F582068317834E
:1032100083E08083248135814681578157FF1AC01E
:10322000C901AA2797FDA095BA2F81709070A07050
:10323000B0705695479537952795822B932BA42BE5
:10324000B52B84839583A683B7838281938101966E
:1032500093838283DF0101C0D201CD01CDB7DEB7F8
:10326000E2E10C94171FA0E2B0E0E9E3F9E10C946D
:10327000071F69837A838B839C832D833E834F83CF
:103280005887E9E0EE2EF12CEC0EFD1ECE010196E2
:10329000B7010E94161E8E010F5E1F4FCE010596CC
:1032A000B8010E94161E8A8991E089278A8BC7017E
:1032B000B801AE01475E5F4F0E94E7170E94411DB3
:1032C000A096E6E00C94231FA0E2B0E0EAE6F9E164
:1032D0000C94071F69837A838B839C832D833E83A1
:1032E0004F835887F9E0EF2EF12CEC0EFD1ECE0136
:1032F0000196B7010E94161E8E010F5E1F4FCE0170
:103300000596B8010E94161EC701B801AE01475EBE
:103310005F4F0E94E7170E94411DA096E6E00C94C3
:10332000231FA0E2B0E0E7E9F9E10C94FB1E6983FA
:103330007A838B839C832D833E834F835887CE0172
:103340000196BE01675F7F4F0E94161ECE01059653
:10335000BE016F5E7F4F0E94161E9985923088F0E5
:1033600089898230C8F0943019F4823051F404C055
:10337000843029F4923081F488E092E0C6C0923023
:1033800049F420E09A858A89981321E02A87CE01A2
:103390000996BBC0823049F420E09A858A89981347
:1033A00021E02A8BCE014196B0C02D843E844F840B
:1033B00058886D887E888F88988CEE24FF2487013A
:1033C000AA24BB24650140E050E060E070E0E0E04A
:1033D000F0E0C10181709070892BE9F0E60CF71CD8
:1033E000081D191D9A01AB012A0D3B1D4C1D5D1DC9
:1033F00080E090E0A0E0B0E0E614F70408051905CD
:1034000020F481E090E0A0E0B0E0BA01A901480F0B
:10341000591F6A1F7B1FAA0CBB1CCC1CDD1C97FE0E
:1034200008C081E090E0A0E0B0E0A82AB92ACA2A4A
:10343000DB2A3196E032F10549F0660C771C881CD6
:10344000991C5694479437942794C3CFFA85EA89F8
:103450002B893C898B859C85280F391F2E5F3F4F18
:1034600017C0CA0181709070892B61F0169507957D
:10347000F794E79480E090E0A0E0B0E8E82AF92A29
:103480000A2B1B2B76956795579547952F5F3F4FD6
:1034900077FDE7CF0CC0440F551F661F771F17FD40
:1034A0004160EE0CFF1C001F111F215030404030C6
:1034B00090E0590790E0690790E4790760F32B8F5B
:1034C0003C8FDB01CA018F779070A070B0708034A0
:1034D0009105A105B10561F447FD0AC0E114F104AD
:1034E0000105110529F0405C5F4F6F4F7F4F407819
:1034F0001A8EFE1711F081E08A8F4D8F5E8F6F8FCD
:1035000078A383E0898FCE0149960E94411DA09641
:10351000E2E10C94171FA8E1B0E0E1E9FAE10C94B4
:10352000031F69837A838B839C832D833E834F8320
:103530005887B9E0EB2EF12CEC0EFD1ECE01019662
:10354000B7010E94161E8E010F5E1F4FCE01059619
:10355000B8010E94161E2985223008F47EC03989E0
:10356000323010F4B8017CC08A859A8989278A870D
:10357000243011F0223031F4231709F06EC068E0D6
:1035800072E06EC0343039F41D861E861F86188A9C
:103590001C861B8604C0323021F484E08987B70181
:1035A0005FC02B853C858B899C89281B390B3C8708
:1035B0002B87ED84FE840F851889AD88BE88CF885F
:1035C000D88CEA14FB040C051D0540F4EE0CFF1C1E
:1035D000001F111F215030403C872B8720E030E036
:1035E00040E050E080E090E0A0E0B0E460E070E017
:1035F000EA14FB040C051D0540F0282B392B4A2B3F
:103600005B2BEA18FB080C091D09B695A795979541
:103610008795EE0CFF1C001F111F6F5F7F4F6F31EE
:10362000710531F7DA01C9018F779070A070B07021
:1036300080349105A105B10561F427FD0AC0E114AC
:10364000F1040105110529F0205C3F4F4F4F5F4FFA
:1036500020782D873E874F87588BBE01675F7F4F4D
:10366000CB010E94411D6896EAE00C941F1FA8E15F
:10367000B0E0EDE3FBE10C94071F69837A838B8351
:103680009C832D833E834F83588789E0E82EF12C5D
:10369000EC0EFD1ECE010196B7010E94161E8E0192
:1036A0000F5E1F4FCE010596B8010E94161E898538
:1036B000823040F08989823028F0C701B8010E9429
:1036C0008E1E01C08FEF6896E6E00C94231FA8E1E0
:1036D000B0E0EDE6FBE10C94071F69837A838B83EE
:1036E0009C832D833E834F83588789E0E82EF12CFD
:1036F000EC0EFD1ECE010196B7010E94161E8E0132
:103700000F5E1F4FCE010596B8010E94161E8985D7
:10371000823040F08989823028F0C701B8010E94C8
:103720008E1E01C08FEF6896E6E00C94231FA8E17F
:10373000B0E0EDE9FBE10C94071F69837A838B838A
:103740009C832D833E834F83588789E0E82EF12C9C
:10375000EC0EFD1ECE010196B7010E94161E8E01D1
:103760000F5E1F4FCE010596B8010E94161E898577
:10377000823040F08989823028F0C701B8010E9468
:103780008E1E01C081E06896E6E00C94231FA8E03D
:10379000B0E0EDECFBE10C94041F9B01AC0183E075
:1037A0008983DA01C9018827B7FD83959927AA275C
:1037B000BB27B82E211531054105510519F482E0CA
:1037C00089833AC08823A9F0203080E0380780E060
:1037D000480780E8580729F460E070E080E09FEC3B
:1037E00030C0EE24FF248701E21AF30A040B150B04
:1037F00002C079018A018EE1C82ED12CDC82CB82F5
:10380000ED82FE820F831887C801B7010E94F21C67
:1038100001971816190684F4082E04C0EE0CFF1C3C
:10382000001F111F0A94D2F7ED82FE820F831887C2
:10383000C81AD90ADC82CB82BA82CE0101960E94D4
:10384000411D2896E9E00C94201FACE0B0E0EBE2CB
:10385000FCE10C940B1F69837A838B839C83CE01DC
:103860000196BE016B5F7F4F0E94161E8D818230D4
:1038700061F1823050F1843021F48E81882351F13E
:103880002EC02F81388537FD20C06E812F31310544
:103890001CF06623F9F023C08EE190E0821B930BAD
:1038A00029853A854B855C8504C0569547953795A3
:1038B00027958A95D2F76623B1F0509540953095BB
:1038C00021953F4F4F4F5F4F0EC020E030E040E06A
:1038D00050E009C02FEF3FEF4FEF5FE704C020E05B
:1038E00030E040E050E8B901CA012C96E2E00C94C7
:1038F000271FA8E0B0E0EFE7FCE10C94031F7B0179
:103900008C01611571058105910519F482E08983A7
:1039100060C083E089838EE1C82ED12CDC82CB820B
:10392000ED82FE820F831887C801B7010E94F21C46
:10393000FC013197F7FF3BC0222733272E1B3F0B9B
:1039400057016801022E04C0D694C794B794A79477
:103950000A94D2F740E050E060E070E081E090E04F
:10396000A0E0B0E004C0880F991FAA1FBB1F2A95D2
:10397000D2F70197A109B1098E219F21A023B1237C
:103980000097A105B10521F041E050E060E070E052
:103990004A295B296C297D294D835E836F83788753
:1039A0008EE190E08E1B9F0B9C838B8312C030971F
:1039B00081F00E2E04C0EE0CFF1C001F111F0A9494
:1039C000D2F7ED82FE820F831887CE1ADF0ADC82DF
:1039D000CB821A82CE0101960E94411D2896EAE010
:1039E0000C941F1FEF92FF920F931F937B018C018A
:1039F00080E0E81680E0F80681E0080780E018071C
:103A000088F48FEFE816F1040105110531F028F074
:103A100088E090E0A0E0B0E017C080E090E0A0E097
:103A2000B0E012C080E0E81680E0F80680E0080709
:103A300081E0180728F088E190E0A0E0B0E004C041
:103A400080E190E0A0E0B0E020E230E040E050E033
:103A5000281B390B4A0B5B0B04C016950795F7948E
:103A6000E7948A95D2F7F701E05FFD4F8081281B2C
:103A7000310941095109C9011F910F91FF90EF9040
:103A80000895DF92EF92FF920F931F93FC01E48061
:103A9000F58006811781D1808081823048F480E0F2
:103AA00090E0A0E1B0E0E82AF92A0A2B1B2BA5C080
:103AB000843009F49FC0823021F4EE24FF24870172
:103AC00005C0E114F1040105110519F4E0E0F0E08E
:103AD00096C0628173819FEF623879070CF05BC0FA
:103AE00022E83FEF261B370B2A3131052CF020E06E
:103AF00030E040E050E02AC0B801A701022E04C027
:103B000076956795579547950A94D2F781E090E0AE
:103B1000A0E0B0E004C0880F991FAA1FBB1F2A9520
:103B2000D2F70197A109B1098E219F21A023B123CA
:103B30000097A105B10521F081E090E0A0E0B0E0A0
:103B40009A01AB01282B392B4A2B5B2BDA01C901D7
:103B50008F779070A070B07080349105A105B10589
:103B600039F427FF09C0205C3F4F4F4F5F4F04C01F
:103B7000215C3F4F4F4F5F4FE0E0F0E02030A0E08E
:103B80003A07A0E04A07A0E45A0710F0E1E0F0E0AD
:103B900079018A0127C06038710564F5FB01E1589D
:103BA000FF4FD801C7018F779070A070B07080343C
:103BB0009105A105B10539F4E7FE0DC080E490E060
:103BC000A0E0B0E004C08FE390E0A0E0B0E0E80E39
:103BD000F91E0A1F1B1F17FF05C016950795F794BE
:103BE000E794319687E016950795F794E7948A95C0
:103BF000D1F705C0EE24FF248701EFEFF0E06E2F30
:103C0000679566276795902F9F77D794DD24D79483
:103C10008E2F8695492F462B582F5D29B701CA0153
:103C20001F910F91FF90EF90DF900895FC01DB0151
:103C3000408151812281622F6F7770E0221F2227FD
:103C4000221F9381892F880F822B282F30E0991F04
:103C50009927991F11969C93119721153105A9F564
:103C6000411551056105710511F482E037C082E804
:103C70009FEF13969C938E9312979A01AB0167E086
:103C8000220F331F441F551F6A95D1F783E08C9391
:103C90000DC0220F331F441F551F12968D919C910A
:103CA0001397019713969C938E931297203080E080
:103CB000380780E0480780E4580758F314962D939E
:103CC0003D934D935C93179708952F3F310579F4F9
:103CD000411551056105710519F484E08C9308952F
:103CE00064FF03C081E08C9312C01C9210C02F5758
:103CF000304013963C932E93129783E08C9387E089
:103D0000440F551F661F771F8A95D1F7706414966C
:103D10004D935D936D937C93179708951F93DC01EA
:103D2000FB019C91923008F447C08081823008F4F6
:103D300043C0943051F411961C91843099F58181DF
:103D4000682F70E0611B71093FC0843021F0923010
:103D500031F48230B9F18181882389F12DC0119627
:103D60001C9111978230F1F081811817D9F41296C5
:103D70002D913C911397828193818217930794F040
:103D800028173907BCF014968D919D910D90BC9128
:103D9000A02D2481358146815781281739074A078C
:103DA0005B0718F4112341F00AC082179307A40798
:103DB000B50740F4112319F061E070E005C06FEF22
:103DC0007FEF02C060E070E0CB011F910895AA1B55
:103DD000BB1B51E107C0AA1FBB1FA617B70710F0F6
:103DE000A61BB70B881F991F5A95A9F78095909528
:103DF000BC01CD0108952F923F924F925F926F9236
:103E00007F928F929F92AF92BF92CF92DF92EF926A
:103E1000FF920F931F93CF93DF93CDB7DEB7CA1BEB
:103E2000DB0B0FB6F894DEBF0FBECDBF19942A8806
:103E3000398848885F846E847D848C849B84AA84BE
:103E4000B984C884DF80EE80FD800C811B81AA814B
:103E5000B981CE0FD11D0FB6F894DEBF0FBECDBF16
:083E6000ED010895F894FFCF75
:103E680050000000CC411E000000000000000000CF
:103E78000001020203030303040404040404040409
:103E880005050505050505050505050505050505DA
:103E980006060606060606060606060606060606BA
:103EA80006060606060606060606060606060606AA
:103EB800070707070707070707070707070707078A
:103EC800070707070707070707070707070707077A
:103ED800070707070707070707070707070707076A
:103EE800070707070707070707070707070707075A
:103EF800080808080808080808080808080808083A
:103F08000808080808080808080808080808080829
:103F18000808080808080808080808080808080819
:103F28000808080808080808080808080808080809
:103F380008080808080808080808080808080808F9
:103F480008080808080808080808080808080808E9
:103F580008080808080808080808080808080808D9
:103F680008080808080808080808080808080808C9
:00000001FF
